:1000000001EF05F00000000000EF00F0000000002C
:0A0010000000000000000000F3D71C
:08001C000AAE029E000E120064
:100024000B840BAE1DEF00F0010E036E026A016A31
:0A003400006A0A360232FF0E1200C5
:0E003E00026A016A006A086A036A000E120074
:0C004C000E0E0D6E0D2EFED700001200EF
:100058000C6A0E6A0250D8A445EF00F001C002F005
:1000680000C001F0006A0E860250D8A445EF00F0E7
:1000780001C002F0016A0E960E880250D8B457EFFC
:1000880000F00E50035ED8A4D8A05CEF00F0D89022
:1000980002BE61EF00F0003601360236032E4CEF47
:1000A80000F05CEF00F0010E0C6EC5DF64EF00F0AD
:1000B800020E0C6EB3DF64EF00F0040E0C6EAADFC4
:0200C800120024
:1000CA000B820BAE6FEF00F00368026801680068EC
:0800DA000A360232FF0E12008B
:1000E2000B800BAE7DEF00F0026A0AAEFF0E026ECD
:0C00F200016E006E0A360232FF0E120092
:1000FE000A6A0350D8A40A800750D8A40A820A506C
:10010E00D8B4E2EF00F0030AD8B49BEF00F00AB0C7
:10011E0096EF00F006AEE0EF00F0DEEF00F002AE7C
:10012E00DEEF00F0E0EF00F00250800B0A6E029E50
:10013E000650800B069E0A18D8B4ACEF00F00A5099
:10014E00D8B4DEEF00F0E0EF00F00750035CD8B457
:10015E00B6EF00F0D8A0D2EF00F0D8EF00F00650C6
:10016E00025CD8B4C0EF00F0D8A0D2EF00F0D8EF08
:10017E0000F00550015CD8B4CAEF00F0D8A0D2EF61
:10018E0000F0D8EF00F00450005CD8B4E2EF00F0BD
:10019E00D8B0D8EF00F00A52D8B4E0EF00F0DEEF9E
:1001AE0000F00A52D8B4DEEF00F0E0EF00F0D88095
:0E01BE001200D8901200D880D88412001200CF
:1001CC000B6A0C6A0A6A0350D8B430EF01F0028E45
:1001DC008E0E035E03BEF8EF00F0D8B4F8EF00F01B
:1001EC0034EF01F0036C080E035CD8A00FEF01F0A4
:1001FC00036E013602C001F0026A080E035CD8A03F
:10020C000FEF01F00136016A0350D8A4D89019EF12
:10021C0001F00350D8B419EF01F0D890023201323A
:10022C00032E13EF01F00BBC01A026EF01F0D8A0B8
:10023C0026EF01F0012AD8B4022A02BE43EF01F0E6
:10024C000AAE48EF01F0021E011E012AD8B4022AA0
:10025C0048EF01F0026A016A48EF01F00B800BAE27
:10026C004CEF01F0026A0AAE4CEF01F0FF0E026E89
:10027C00016E0A3602324CEF01F0010E0C6E2BDFD0
:10028C004EEF01F0000E0C6E4EEF01F0FF0E0C6EF7
:0A029C000150006E0250016E1200C6
:1002A600086A096A000E07620364D8EF01F002507B
:1002B60006180A6E075003267E0ED8A069EF01F0D5
:1002C600035ED8B0DCEF01F06DEF01F0035ED8A05D
:1002D600E0EF01F0028E068E02C00EF001C00BF0B8
:1002E60000C00DF000500402F4CF0CF001500502DE
:1002F600F4CF00F0F3CF08F00402F3500C26F450CC
:100306000822000E00220D500502F3500C26F45070
:100316000822000E002202500402F3500826F45070
:10032600002202500502016A000E0122F350002647
:10033600F45001220D500602F3500826F450002214
:10034600026A000E012202220B500602F35000261A
:10035600F4500122000E02220E500602F35001262E
:10036600F450022202BEC0EF01F008360036013614
:1003760002360306D8B4E0EF01F0D3EF01F0D880DF
:10038600800E08640030000E002201220222D8A04E
:10039600D3EF01F0023201320032034ADCEF01F002
:1003A6000AAE029E000EE2EF01F0010E45DEE2EF1C
:1003B60001F0020E87DEE2EF01F0040E30DE1200DD
:1003C600C26A191C006E0050C1160F0EC012C08EF4
:1003D60026C000F000360090003600900050C21291
:1003E600C28031DEC282C2A201D0FDD7C4CF01F0E5
:1003F600006A00C027F001C028F0C3500012000EAA
:10040600011200C027F001C028F0C290000E0014AF
:10041600026E0150800B036E000E031802E1000EFF
:10042600021802E0276A286A27C000F028C001F0F7
:020436001200B2
:100438000050086E0150006E016A026A036A0B6A76
:100448000C6A960E036E0A6A00C001F008C000F03C
:08045800086A026AFDDD1200D2
:1004600092808090928280929284809492868096EC
:100470009390819093928192939481949396819694
:1004800093988198939A819A939C819C939E819E44
:060490000F01396B1200A0
:100496000900F5CFE6FF0006FBE10106F9E11200CF
:1004A600FF0E1A6EFF0E1B6EFF0E1C6EFF0E1D6EEC
:1004B600C26A191C006E0050C1160F0EC012C08E03
:0404C600C2801200DE
:1004CA00000E181802E1000E171812E18198819A9D
:1004DA00819C819E8188818C030E0B6E080E0C6EA6
:1004EA00770E0D6E0D2EFED70C2EFCD70B2EFAD7DB
:1004FA00000E181802E1010E171811E18198819A6D
:10050A00819C819E8188030E0B6E080E0C6E770EFD
:10051A000D6E0D2EFED70C2EFCD70B2EFAD7000E21
:10052A00181802E1020E171812E18198819A819C2B
:10053A00819E8188818A030E0B6E080E0C6E770EDF
:10054A000D6E0D2EFED70C2EFCD70B2EFAD7000EF1
:10055A00181802E1030E171811E18198819A819CFB
:10056A00819E818A030E0B6E080E0C6E770E0D6E3D
:10057A000D2EFED70C2EFCD70B2EFAD7000E18180C
:10058A0002E1040E171812E18198819A819C819EDA
:10059A00818A818E030E0B6E080E0C6E770E0D6E1D
:1005AA000D2EFED70C2EFCD70B2EFAD7000E1618DE
:1005BA0002E1000E151812E18190819281948196D0
:1005CA0081808184030E0B6E080E0C6E770E0D6E01
:1005DA000D2EFED70C2EFCD70B2EFAD7000E1618AE
:1005EA0002E1010E151811E18190819281948196A0
:1005FA008180030E0B6E080E0C6E770E0D6E0D2E9B
:10060A00FED70C2EFCD70B2EFAD7000E161802E1D5
:10061A00020E151812E1819081928194819681804F
:10062A008182030E0B6E080E0C6E770E0D6E0D2E68
:10063A00FED70C2EFCD70B2EFAD7000E161802E1A5
:10064A00030E151811E1819081928194819681821D
:10065A00030E0B6E080E0C6E770E0D6E0D2EFED766
:10066A000C2EFCD70B2EFAD7000E161802E1040E38
:10067A00151812E1819081928194819681828186F6
:10068A00030E0B6E080E0C6E770E0D6E0D2EFED736
:0A069A000C2EFCD70B2EFAD712002D
:1006A4001F50215C02E11E50205C4CE22350255C6B
:1006B40002E12250245C46E220C000F021C001F097
:1006C400B9DE00C004F001C005F002C006F003C0AA
:1006D40007F0000E006E000E016E400E026E7F0EDB
:1006E400036E0BDD000ED8B0010E006E00522AE03E
:1006F40024C000F025C001F09DDE00C004F001C05C
:1007040005F002C006F003C007F0000E006E000EF4
:10071400016E400E026E7F0E036EEFDC000ED8B049
:10072400010E006E00520EE0000E185C02E1000E95
:10073400175C08E3000E185C02E1040E175C02E289
:10074400174A182A21501F5C02E120501E5C52E215
:100754002550235C02E12450225C4CE21EC000F0D0
:100764001FC001F067DE00C004F001C005F002C044
:1007740006F003C007F0000E006E000E016E400E7E
:10078400026E7F0E036EB9DC000ED8B0010E006E4F
:10079400005230E022C000F023C001F04BDE00C064
:1007A40004F001C005F002C006F003C007F0000E1B
:1007B400006E000E016E400E026E7F0E036E9DDC15
:1007C400000ED8B0010E006E005214E0000E006E50
:1007D4001850005C02E1175000080CE2000E006E95
:1007E4001850005C02E11750040804E3010E175E80
:1007F400000E185A2150255C02E12050245C52E27C
:100804001F50235C02E11E50225C4CE224C000F025
:1008140025C001F00FDE00C004F001C005F002C0E5
:1008240006F003C007F0000E006E000E016E400ECD
:10083400026E7F0E036E61DC000ED8B0010E006EF6
:10084400005230E022C000F023C001F0F3DD00C00C
:1008540004F001C005F002C006F003C007F0000E6A
:10086400006E000E016E400E026E7F0E036E45DCBC
:10087400000ED8B0010E006E005214E0000E006E9F
:100884001650005C02E1155000080CE2000E006EE8
:100894001650005C02E11550040804E3010E155ED5
:1008A400000E165A2550215C02E12450205C4DE2D2
:1008B40023501F5C02E122501E5C47E220C000F07E
:1008C40021C001F0B7DD00C004F001C005F002C092
:1008D40006F003C007F0000E006E000E016E400E1D
:1008E400026E7F0E036E09DC000ED8B0010E006E9E
:1008F40000522BE01EC000F01FC001F09BDD00C0C1
:1009040004F001C005F002C006F003C007F0000EB9
:10091400006E000E016E400E026E7F0E036E7FECC1
:1009240000F0000ED8B0010E006E00520EE0000E72
:10093400165C02E1000E155C08E3000E165C02E191
:0C094400040E155C02E2154A162A12008F
:10095000266A39DD00C020F001C021F06DDD000EF7
:10096000046E000E056E200E066E770E076E9BDC81
:100970002DDC00C020F001C021F0010E266E23DD29
:1009800000C01EF001C01FF057DD000E046E000E07
:10099000056E200E066E770E076E85DC17DC00C034
:1009A0001EF001C01FF0020E266E0DDD00C024F007
:1009B00001C025F041DD000E046E000E056E200E14
:1009C000066E770E076E6FDC01DC00C024F001C0FC
:1009D00025F0030E266EF7DC00C022F001C023F0E4
:1009E0002BDD000E046E000E056E200E066E770ED7
:1009F000076E59DCE6EC00F000C022F001C023F0E5
:020A00001200E2
:100A02000DEC05F04FDD2BDDA2DF4BDE5DDDFCD70B
:020A1200FFD70C
:100A1A0010EE15F0050E006E010E016E140EF66E44
:0E0A2A000A0EF76E000EF86E4BEC02F0120092
:020A14000200DE
:020A16000200DC
:010A18000FCE
:020000040030CA
:0D000100231F3CFFBF81FF0FC00FE00F4029
:00000001FF
