:02000000432A91
:100006007B15FB1F0D280130F300F201F101F00111
:08001600FA0DF20CFF300800A6
:10001E0083120313F8010830FC00700DF80D7408FC
:10002E00F80203181C28F8070310F00DFC0B142817
:02003E000800B8
:0E004000F201F101F001F801F30100300800B7
:08004E00FA1FF2130030080054
:10005600FB14FB1F3528FF30F300F200F100F0001F
:08006600FA0DF20CFF30080056
:10006E007B14FB1F4228F201FA1FFF30F200F10051
:0A007E00F000FA0DF20CFF3008004C
:100088000E3083120313FD00FD0B48280000080002
:0E0098008312031326088A0025088200080040
:1000A6007C188928FC185A287C19A8285328A001EE
:1000B6007208031D7A287108F2007008F1007808AA
:1000C600F000F801A0157208031D7A287108F200E5
:1000D6007008F100F001A01120167208031D7A289D
:1000E6007108F200F101A015720803199C28200876
:1000F600F302031D031CA0280310F21B8928F80D28
:10010600F00DF10DF20DF30B8028A0287B1B701C5F
:10011600A428F81FA428F00A0319F10A0319F20A01
:10012600031DA428F20CF10CF00CF30A0319A828FD
:10013600A4280130FC002020AB280230FC0003205C
:10014600AB280430FC002720AB280830FC002B200D
:04015600000008009D
:10015A000A3083120313F4002B08F0000F207008F2
:10016A00AC000A30F4002B08F0000F207808F000E9
:0A017A002C088800700886000800B9
:1001840083120313FB01FC01FA0173080319EF281E
:10019400FA13F2178630F302F31BD3280319D3287A
:1001A400F128F309F30A08307302031CE028F30072
:1001B400F20DF2017308031D0310E72873080319F5
:1001C400E7280310F20CF30BE3287B1B721CEF28C7
:1001D400031CEF28F20A0319F628F101F9287B140D
:1001E400FB1FFC28F101FC280130FC00FE28003034
:1001F400FC00FE28FF30FC00FC080319022937200C
:060204007208F000080082
:10020A0083120313FB017308031D770803195C2982
:10021A0072087606FA007708F3077E30031C19295C
:10022A00F30203185F291C29F302031C62297208CE
:10023A00F8007108FC007008FD00F817F6170310A3
:10024A00F201F101F0011830A0007D1C3629740872
:10025A00F00775080318750FF10776080318760F6B
:10026A00F207F20CF10CF00CF80CFC0CFD0C03106C
:10027A00A00B2A29F21B4629F80DF00DF10DF20DFB
:10028A00F3037B1B701C5829F81F5829F00A03191D
:10029A00F10A0319F20A031D5829F20CF10CF00CA9
:1002AA00F30A03195F29FA1FF21300306429013097
:1002BA002020642902302B20642904300320000006
:0202CA0008002A
:1002CC00831203130719C42907162208AB00AD20AB
:1002DC000430FB000C30FC003330FD00FD0B7429A6
:1002EC00FC0B7429FB0B742900000000071DB229BC
:1002FC0087189729A20A2208633C03188629A201B1
:10030C002208AB00AD200430FB000C30FC00333075
:10031C00FD00FD0B8F29FC0B8F29FB0B8F29000097
:10032C0000008719B129A203003022020318A0296A
:10033C006330A2002208AB00AD200430FB000C306F
:10034C00FC003330FD00FD0BA929FC0BA929FB0B8C
:10035C00A929000000007C292408AB00AD2007125D
:10036C000430FB000C30FC003330FD00FD0BBC29CD
:0E037C00FC0BBC29FB0BBC2900000000080094
:10038A00831203137008F800FB01FC019E30F3008E
:10039A00FA01F201F101F0010230FC0053200800D9
:1003AA00FF3083120313A700FF30A800FF30A90013
:1003BA00FF309F01C0309F042109F00070088316A6
:0C03CA009F051F179F1783121F140800C7
:1003D6004C208A110A128000840AA50A0319A60A6B
:0803E600F003031DEB290800E0
:1003EE00831203139F01C0309F042109F00070088F
:1003FE0083169F051F179F1783122A08F000F00D12
:10040E007010F00D7010F00D701070089F041F1416
:10041E0044201F151F1D152A0000112A1F101E082B
:10042E00F100F00183161E08F0040030F1040800FC
:10043E0083160313051483120510831688010130E9
:10044E00831288008316860101308312860083167C
:10045E0007158312071583168714831287148316C4
:10046E0087158312871583160712831207128316B8
:08047E000710831207100800AB
:1004860092221F22D5210230FB000430FC00BA3034
:10049600FD00FD0B4C2AFC0B4C2AFB0B4C2A0000E2
:1004A600AB01AD200630FB001330FC00AD30FD0083
:1004B600FD0B5B2AFC0B5B2AFB0B5B2A0000000092
:1004C600AA01F72170088312A400C5210030F400A8
:1004D6000030F5007A30F6007D30F7000521C220A5
:1004E6007008A4007008230603197E2A2408A300B6
:1004F6002408AB00AD20662122082402031C852AAD
:0A0506000714862A0710632A872ACB
:1005240021308400043083120313F0008D30A500C1
:080534000230A600EB210800D3
:02051A000F349C
:02051C001E348B
:02051E000034A7
:020520000034A5
:02400E004A2F37
:00000001FF
